:020000040800F2
:100000008815002001010008112200087F1800084F
:10001000FD210008D9060008952500080000000011
:100020000000000000000000000000005323000852
:10003000390900080000000041220008552300088B
:100040001B0100081B0100081B0100081B01000820
:100050001B0100081B0100081B0100081B01000810
:100060001B0100081B0100081B0100081B01000800
:100070001B0100081B0100081B0100081B010008F0
:100080001B0100081B0100081B0100081B010008E0
:100090001B0100081B0100081B0100081B010008D0
:1000A0001B0100081B0100081B0100081B010008C0
:1000B0001B0100081B0100081B0100081B010008B0
:1000C0001B0100081B0100081B0100081B010008A0
:1000D0001B0100081B0100081B0100081B01000890
:1000E0001B0100081B0100081B010008DFF80CD0F1
:1000F00000F062FA00480047F13900088815002036
:100100000648804706480047FEE7FEE7FEE7FEE7B1
:10011000FEE7FEE7FEE7FEE7FEE7FEE7A9230008AD
:10012000ED000008202A04DB203A21FA02F0002129
:10013000704721FA02F3D040C2F1200291400843F7
:100140001946704740EA01039B0703D009E008C93C
:10015000121F08C0042AFAD203E011F8013B00F88C
:10016000013B521EF9D27047D2B201E000F8012BD8
:10017000491EFBD270470022F6E710B513460A4627
:1001800004461946FFF7F0FF204610BD421C10F848
:10019000011B0029FBD1801A704730B505460020AD
:1001A000034600E05B1C934205D2EC5CC85C201A5D
:1001B00001D1002CF6D130BD30B50B4601460020F0
:1001C0002022012409E021FA02F59D4205D303FA19
:1001D00002F5491B04FA02F52844151EA2F101029A
:1001E000F1DC30BD2DE9F05F0546002092469B46CC
:1001F00088460646814640241BE02846414647463D
:100200002246FFF78FFF53465A46C01A914110D33A
:1002100011461846224600F0E1F92D1A67EB010855
:100220004F4622460120002100F0D8F917EB0009C3
:100230004E41201EA4F10104DFDC484631462A4627
:100240004346BDE8F09F2DE9FE4F804681EA03005A
:10025000C00F0C46009021F0004123F00045B8EBA0
:100260000200A94105D24046214690461C460B4655
:10027000024623F00040104347D0270DC7F30A0081
:10028000C3F30A510290401A019040286BDAC3F37D
:10029000130040F4801B0098924620B10023D2EB5B
:1002A000030A63EB0B0B01985946C0F1400250461C
:1002B00000F094F906460D4650465946019A00F062
:1002C0009CF910EB08006141002487EA115284EA8E
:1002D000E7731A4340D0009A62B3019A012A4FEAA9
:1002E000075215DC001B61EB02014FF0004202EAED
:1002F0000752CDE90042001C41F5801132462B46E1
:1003000000F09CF903B0BDE8F08F40462146F9E7C4
:10031000001B61EB0201001C41F5801300185B41DA
:100320002018A2F5001747EB030140EAD570B61973
:100330006D4111E06D084FEA360645EAC0754FEA97
:100340000752001B61EB0201001C41F580114908B6
:100350004FEA30000019514132462B4603B0BDE848
:10036000F04F00F05CB90098012240000023D0EB70
:10037000020263EBE073009821464FEAE074B8EBA9
:10038000000061EB0401E9E783F000435BE781F0E3
:10039000004158E72DE9FE4F81EA030404F00044D0
:1003A00021F0004100944FF0000B23F0004350EA8D
:1003B00001045ED052EA03045BD0C3F30A54C1F3D4
:1003C0000A552C44A4F2F3340194A0FB0254C1F367
:1003D000130141F48011C3F3130343F4801301FBB1
:1003E000024400FB034E840A970A44EA815447EA18
:1003F0008357A4FB076802958D0A05FB07854FEA22
:10040000932C04FB0C542705029D4FEA065847EA3B
:100410001637B5EB08056EEB070C870E920E47EA10
:10042000811742EA8312A7FB0201B6EB0B0164EBD2
:1004300000042B0D43EA0C335E1844EB1C50DA46E3
:100440005146E7FB0201C5F313044FEA0B3343EABD
:1004500014534FEA0432019C43EA0603A4F10C044E
:100460000294009CCDE900B400F0E8F803B0BDE8C8
:10047000F08F00200146F9E72DE9F04D81EA0304F1
:1004800004F0004B21F0004514464FF0000A23F021
:10049000004150EA050220D054EA01021DD0C5F304
:1004A0000A570246C5F31303C1F31300C1F30A56FA
:1004B00040F4801543F48013A7EB0608101BD646C2
:1004C00008F2FD3873EB050002D308F1010801E0E2
:1004D00092185B41B8F1000F03DA00200146BDE835
:1004E000F08D00204FF48011064684460EE0171B65
:1004F00073EB050705D3121B63EB050306434CEAB8
:10050000010C49084FEA300092185B4150EA01079C
:10051000EDD152EA030012D082EA040083EA050119
:10052000084305D0101BAB4106D20122002306E090
:1005300000224FF0004302E06FF0010253101AEB6B
:1005400006004CEB085110EB0A0041EB0B01BDE833
:10055000F04D00F064B8C1F30A52C1F3130140F248
:10056000FF3341F480119A4202DA002001467047BD
:1005700040F233439A42A2F2334202DC5242FFF786
:10058000D1BD00F02BB8000030B5041E71F100049D
:1005900004DB4FF00044404264EB0101141E73F190
:1005A000000405DB1C464FF00043524263EB04039A
:1005B000994208BF904230BD064C074D06E0E06806
:1005C00040F0010394E8070098471034AC42F6D39A
:1005D000FFF790FDC0500008E0500008202A04DB1F
:1005E000203A00FA02F1002070479140C2F1200346
:1005F00020FA03F3194390407047202A06DBCB17FB
:10060000203A41FA02F043EAE07306E041FA02F3CD
:10061000D040C2F12002914008431946704710B5FE
:10062000141E73F1000408DA401C41F10001921815
:100630005B411A4301D120F0010010BD2DE9F04DBE
:1006400092469B4611B1B1FA81F202E0B0FA80F213
:1006500020329046FFF7C2FF04460F4640EA0A00E8
:1006600041EA0B0153465A46084313D0114653EA58
:10067000010019D0C8F140025046FFF753FD05466E
:100680000E46504659464246FFF7A8FF084305D09C
:10069000012004E020463946BDE8F08D00200543E6
:1006A00046EAE0762C4337430A986305E40AA0EB58
:1006B00008000022FD0A44EA47540A3002D500200F
:1006C0000146E9E7010510196941DDE9084500190E
:1006D0006941BDE8F04DA2E7FEE7000010B502F069
:1006E00097FF014603A001F0ADFE0E4901200870FE
:1006F00010BD000043616C6C6261636B3A2049502D
:100700002061737369676E656421204C6561736550
:10071000642074696D653A202564207365630D0A51
:10072000000000000000002001A001F08BBE0000CE
:1007300043616C6C6261636B3A20495020636F6E59
:10074000666C696374210D0A0000000070B51546DF
:100750000E46044643F2390200780023012104F0DA
:10076000C3F920782A463146BDE8704002F066BDE4
:10077000F8B50D46064600244FF4106706221A49C4
:100780003846009401F066FF174801784278C37834
:10079000114382781A43114302791143427911437C
:1007A0000CD1047008214170DC218170C470047187
:1007B000447101460622384601F0B6FF0A4F0B4845
:1007C0003C3F0422BE70C7E90D0569464FF47060D6
:1007D00001F0AAFF04226946900101F0A5FF03F091
:1007E0005FFD3C70F8BD00004800002078563412D0
:1007F0002DE9F041464C2078062822D0A0784FF40D
:10080000427101EB401001F0F9FE222805D00023CF
:1008100044220221A07804F067F9012503F064FA6C
:10082000C2B23B4894F90030C01D00260127011FC9
:100830004FF00308052B2FD2DFE803F0060D1C3024
:100840004A000520BDE8F081067046708670C670CB
:1008500003F068FE5AE0022A1BD1A16B0A7C0270E9
:100860004A7C42708A7C8270C97CC17003F034FF7C
:1008700002202BE0052A0AD102F03AFC08B1606A96
:100880003CE003F00DFDE06A8047267004E0062A94
:100890003AD002F061FC05462846D3E7A269042558
:1008A000531CF9D0E369B3EB520FF5D902780A7003
:1008B00042784A7082788A70C078C870606B401C39
:1008C000606303F009FF03F0EBFC04202070E3E712
:1008D0000425052ADBD166700A7803789A420BD189
:1008E0004A7843789A4207D18A7883789A4203D12A
:1008F000C978C078814202D0A06A0325804703F0FE
:10090000CFFC84F80080C7E703F0CAFC2770C3E778
:100910000C0000200248C169491CC16170470000F9
:100920000C000020034A107041F2221051605080E8
:100930007047000058000020704700002DE9F84F74
:10094000DFF8B891002409F1040A0AF1040B2346E8
:100950000F270BF1040EC9E00125A5402A40AA4249
:100960007DD1674ED1F804C0ACEB0608B44532D057
:1009700014DCBCF1030F3AD009DCBCF1000F2AD023
:10098000BCF1010F1CD0BCF1020F31D11DE0BCF154
:10099000110F17D0BCF1120F2AD119E0B8F5881F3A
:1009A00019D006DCB8F5803F15D0B8F5801F1FD1EF
:1009B00011E0B8F5001F0ED0B8F5041F18D10AE0F9
:1009C000CB6815E0CB681B1D12E0CB6808330FE045
:1009D000CB680C330CE08B682BB1012B4FF0080374
:1009E00003D0456104E0042302E0056100E0002338
:1009F000FF2A01D8064601E000F104064FEA84050B
:100A000001D9A5F12005D6F8008007FA05FC28EAEF
:100A10000C0803FA05F548EA0508C6F800804D6899
:100A2000ED0062D5374DAE6946F00106AE61AD69A5
:100A300024F0030605F001050095334D06EB050C87
:100A4000DCF80850A607360F07FA06F825EA08056D
:100A5000DFF8B880404503D14FF0000817E044E0CC
:100A6000DFF8AC80404502D14FF001080FE0DFF81D
:100A7000A480404502D14FF0020808E0DFF89880DA
:100A8000404502D14FF0030801E04FF0040808FA96
:100A900006F848EA0508CCF808804D68D9F80060E7
:100AA000ED034D4601D5164300E096432E604D6898
:100AB000DAF80060AD03554601D5164300E09643D1
:100AC0002E604D68DBF80060ED025D4601D51643EF
:100AD00000E096432E604D68DEF80060AD0275467A
:100AE00001D5164300E096432E60641C0D682A462B
:100AF000E5407FF431AFBDE8F88F0000000401400D
:100B000000001110001002400000014000080140E8
:100B1000000C01400010014000140140C2680A426C
:100B200001D041617047016170470AB101617047AE
:100B30000904FBE70148806870470000B40000200A
:100B4000024881680278114481607047B400002037
:100B5000074810B5016841F010010160032000F062
:100B600067F8002000F006F800F024F8002010BD1F
:100B70000020024070B50D4D04464FF47A7128787C
:100B8000B1FBF0F00A490968B1FBF0F000F09DFDFF
:100B900048B9102C07D200222146501E00F028F838
:100BA00000206C6070BD012070BD0000B40000200A
:100BB000B00000200C4808B5816941F00101816155
:100BC000816901F001010091C16941F08051C16169
:100BD000C06900F0805000900448416821F0E06155
:100BE00041F00071416008BD00100240000001406A
:100BF000F0B40E4B1B680C46C3F30223C3F1070588
:100C0000042D00D90425191D072901D2002300E075
:100C1000DB1E012606FA05F1491E214099409E403F
:100C2000761E16403143F0BC01F0CCBD0CED00E067
:100C3000064900F0070208684FF6FF03184040EA33
:100C40000220034A10430860704700000CED00E0EA
:100C50000000FA052DE9F0470F46050061D0434E2C
:100C6000306800F00700B84209D2306820F0070071
:100C700038433060306800F00700B84251D128682E
:100C80003B4C810712D5400703D5606840F4E06013
:100C900060602878000703D5606840F460506060A9
:100CA0006068A96820F0F000084360602878C007F9
:100CB00028D06868012810D02168022810D0890740
:100CC00000292EDA616821F0030101436160FFF71A
:100CD00031FF804641F288390DE021688903EFE752
:100CE0008901EDE7FFF726FFA0EB0801494502D98E
:100CF0000320BDE8F0876068696800F00C00B0EB85
:100D0000810FEFD1306800F00700B8420BD930688E
:100D100020F0070038433060306800F00700B84228
:100D200001D00120E5E72878400705D56068E9682B
:100D300020F4E060084360602878000706D560680A
:100D4000296920F4605040EAC100606000F038F882
:100D50006168084AC1F30311515CC8400649086044
:100D600006480068FFF706FF0020C2E700200240A7
:100D7000001002405C500008B0000020B8000020C5
:100D80000448054900684968044AC1F30221515CDE
:100D9000C8407047B0000020001002406C500008AE
:100DA0000448054900684968044AC1F3C221515CFE
:100DB000C8407047B0000020001002406C5000088E
:100DC00012A185B00FC98DE80F0014A0144A006865
:100DD00004905168134801F00C03042B10D0082B29
:100DE0000ED1C1F38343C9031DF803000AD551682E
:100DF00004AAC1F34041515C0A4A5043B0FBF1F0F0
:100E000005B0704708494843FAE7000002030405AB
:100E1000060708090A0B0C0D0E0F10100102000046
:100E20000010024000127A0000093D002DE9F84F41
:100E3000040070D02078C04DC00749D06868C0F366
:100E40008100012807D06868C0F38100022809D119
:100E50006868C00306D52868800339D56068002813
:100E6000E7D035E06068B0F5803F0BD010B1B0F549
:100E7000A02F11D0286820F480302860286820F442
:100E8000802002E0286840F480302860606890B1DB
:100E9000FFF750FE06460AE0286840F480202860EC
:100EA000F0E700BFFFF746FE801B642873D8286870
:100EB0008003F7D50CE0FFF73DFE064605E000BFD6
:100EC000FFF738FE801B6428F0D828688003F7D429
:100ED00020789A4E80074FF001094FF0000839D56D
:100EE000686810F00C0F07D06868C0F38100022812
:100EF00009D16868C00306D42868800714D5206922
:100F0000012808D110E02069B0B1C6F80090FFF7C1
:100F100011FE074605E00AE1FFF70CFEC01B0228A0
:100F2000C4D828688007F7D52868616920F0F800E0
:100F300040EAC10028600DE0C6F80080FFF7FAFD26
:100F4000074604E0FFF7F6FDC01B022823D82868F7
:100F50008007F7D4207800072CD57948A169D9B14A
:100F6000C0F80090FFF7E6FD074604E0FFF7E2FD5A
:100F7000C01B02280FD8686A8007F7D571484FF464
:100F8000FA510068B0FBF1F0009000BF0098411EDC
:100F90000091FAD20EE080E0C0F80080FFF7CAFDB1
:100FA000074604E0FFF7C6FDC01B022875D8686A33
:100FB0008007F7D42078400760D5E8690027C00093
:100FC00008D4E86940F08050E861E869012700F042
:100FD000805000905C480168C90513D401688346BD
:100FE00041F480710160FFF7A5FD824606E000BF75
:100FF000FFF7A0FDA0EB0A0064284ED8DBF8000044
:10100000C005F5D5E06801280AD008B1052813D03D
:10101000286A20F001002862286A20F0040002E01B
:10102000286A40F001002862E06841F2883B98B1EC
:10103000FFF780FD82460BE0286A40F0040028623A
:10104000EEE700BFFFF776FDA0EB0A0159455AD83D
:10105000286A8007F6D50CE0FFF76CFD824605E0B4
:10106000FFF768FDA0EB0A0159454CD8286A8007B4
:10107000F6D41FB1E86920F08050E861E06988B3D8
:101080006968C1F38101022944D00228C6F8608052
:1010900004D0FFF74FFD044638E034E0FFF74AFD87
:1010A000074604E0FFF746FDC01B02282BD828683E
:1010B0008001F7D4206AB0F5803F05D16868A16847
:1010C00020F4003008436860D4E9080108436968E7
:1010D00021F4741108436860C6F86090FFF72AFD98
:1010E000044606E025E000BFFFF724FD001B0228B0
:1010F00009D828688001F7D51BE000BFFFF71AFD6B
:10110000001B022802D90320BDE8F88F286880015F
:10111000F4D40EE00128F7D06868226A00F4803128
:10112000914204D1616A00F47010884201D001201C
:10113000EAE70020E8E70000001002400000424219
:1011400080044242B00000200070004070B50400EE
:1011500005D00025A56294F8510010B106E00120E9
:1011600070BD84F85050204600F02EF8022084F81C
:1011700051002068016821F040010160D4E90101BB
:101180000843D4E903121143084361690843218BE2
:1011900001F400710843E1690843216A0843A16A28
:1011A000084321680860A069042101EA1040216811
:1011B00048602068C16921F40061C1616565012052
:1011C00084F85100002070BD30B585B00024009433
:1011D00001940294039400681549884225D115486A
:1011E000C16941F48041C161C16901F48041049148
:1011F000816941F00801816180690F4D00F00800AC
:1012000004904FF4204000900220019003200390AE
:1012100069462846FFF792FB4FF48040CDE9000471
:10122000694628460294FFF789FB05B030BD0000EF
:101230000038004000100240000C01402DE9F84F3A
:10124000044640680025984616460F464FF0040BAA
:10125000B0F5827F01D1A06888B194F850000128D0
:1012600018D0012084F85000FFF764FC814694F800
:1012700051004FF0000A01280ED002257DE084F8CD
:1012800051B013460A462046CDF8008000F02CF9F4
:10129000BDE8F88F0220FBE7002F6DD0002E6BD049
:1012A00084F851B0C4F854A0A763A687E687C4F8B1
:1012B00030A0A4F834A0A4F836A0C4F840A0C4F824
:1012C00044A0A068B0F5004F04D12068016821F463
:1012D0008041016020680168490603D4016841F03B
:1012E00040010160E068D8B139E020688168C90731
:1012F00009D0007BA16B0870A06B401CA063E08F3D
:10130000401EE0870CE0FFF715FCA0EB090141450A
:1013100003D3B8F1FF3F03D036E0B8F1000F33D06C
:10132000E08F0028E1D11DE020688168C90709D05D
:10133000C068A16B0880A06B801CA063E08F401E7A
:10134000E0870CE0FFF7F6FBA0EB0901414503D372
:10135000B8F1FF3F03D017E0B8F1000F14D0E08FD1
:101360000028E1D14A464146204600F06AFF08B114
:1013700020206065606D00B10125012084F85100D6
:1013800084F850A0284683E70325F6E72DE9F84FB7
:10139000044690F8500000271D461646894601284D
:1013A0000DD04FF0010B84F850B0FFF7C3FB80461F
:1013B00094F85100BA46012804D002278EE002209A
:1013C000BDE8F88FB9F1000F7DD0002E7BD003204F
:1013D00084F85100C4F854A0C4F83090A686E6867C
:1013E000C4F838A0A4F83CA0A4F83EA0C4F844A0D7
:1013F000C4F840A0A068B0F5004F04D1206801688F
:1014000041F48041016020680168490603D4016805
:1014100041F040010160E068B0F5006F606803D002
:1014200030B3012E24D040E008B1012E1CD1206B36
:1014300021680088C86006E020688168890709D5AE
:10144000216B0988C160206B801C2063E08E401EE8
:10145000E08609E0FFF76EFBA0EB0800A84202D38C
:10146000681C01D031E07DB3E08E0028E4D11FE09C
:10147000206B21680078087306E02068816889077E
:1014800009D5216B09780173206B401C2063E08E25
:10149000401EE08609E0FFF74DFBA0EB0800A842E4
:1014A00002D3681C01D010E075B1E08E0028E4D1B1
:1014B00042462946204600F0F2FE08B12020606531
:1014C000A06820B107E008E0FFE7032706E02068F6
:1014D000C16880680090606D00B1012784F851B048
:1014E00084F850A038466BE72DE9F84F044690F891
:1014F000500000270A9E1D4692468B464FF0010978
:1015000001280ED0012084F85000FFF713FB80461D
:1015100094F85100616801280CD0B1F5827F07D1A1
:1015200002E00220BDE8F88FA16809B9042801D0C3
:101530000227C2E0BBF1000F27D0BAF1000F24D080
:101540001DB394F85100042802D0052084F85100FE
:1015500000206065C4F838A0E587A587C4F830B0DE
:10156000E586A5862064606420680168490603D486
:10157000016841F040010160E068B0F5006F60680B
:1015800005D0E8B3012D46D07FE0012795E008B1F2
:10159000012D39D1206B21680088C860206B801C28
:1015A0002063E08E401EE0862EE020688168890777
:1015B0000FD5E18E69B1B9F1010F0AD1216B09880C
:1015C000C160206B801C2063E08E401EE0864FF0DF
:1015D000000920688168C9070CD0E18F51B1C0684B
:1015E000A16B0880A06B801CA063E08F401EE08789
:1015F0004FF00109FFF79EFAA0EB0800B04200E0AF
:1016000009E001D3701C50D1E08E0028CDD1E08FCD
:101610000028CAD13FE0206B216800780873206B56
:10162000401C2063E08E401EE0862EE0206881682A
:1016300089070FD5E18E69B1B9F1010F0AD1216B8C
:1016400009780173206B401C2063E08E401EE08609
:101650004FF0000920688168C9070CD0E18F51B1B3
:10166000C068A16B0870A06B401CA063E08F401E97
:10167000E0874FF00109FFF75DFAA0EB0800B042E8
:1016800002D3701C01D010E07EB1E08E0028CDD1D5
:10169000E08F0028CAD142463146204600F0FFFDC7
:1016A00028B101272020606507E0032705E0A06836
:1016B00018B92068C16880680090012084F8510042
:1016C000002084F8500038462CE710B5401EB0F1D9
:1016D000807F01D3012010BD4FF0E02460610F2115
:1016E000601701F06FF80020A06107202061002042
:1016F00010BD70B5040004D094F83900002510B175
:1017000006E0012070BD84F83850204600F022F831
:10171000242084F839002068C16821F40051C16098
:10172000204600F0A9FE2068016921F49041016182
:101730002068416921F02A0141612068C16841F4B3
:101740000051C160E563202084F8390084F83A0034
:10175000002070BD30B585B000240094019402943F
:10176000039400681449884224D11448816941F4E3
:1017700080418161816901F480410491816941F076
:101780000401816180690E4D00F0040004904FF463
:1017900000700090022001900320039069462846C3
:1017A000FFF7CCF82815CDE90004694628460294D5
:1017B000FFF7C4F805B030BD00380140001002400A
:1017C000000801402DE9F843044690F839001F460F
:1017D00016460D46202850D1A5B19EB194F8380088
:1017E00001284AD0012084F838004FF00008C4F8DE
:1017F0003C80212084F83900FFF79CF9A6848146BB
:10180000E68426E00120BDE8F883E08C401EE084F9
:10181000A0684B46B0F5805F4FF000024FF08001AA
:101820002046009703D000F083FEE8B90DE000F0F9
:101830007FFEC8B928882168C0F308004860206985
:1018400008B16D1C05E0AD1C03E0216815F8010B23
:101850004860E08C0028D8D14B4600224021204629
:10186000009700F065FE08B10320CCE7202084F843
:10187000390084F838800020C5E70220C3E7FEE77E
:10188000F0B4DDE90565049F016500214FEA01041C
:1018900000EBC10C491CCCF824400529F8DB46615B
:1018A0000462C0E90127C0E9035304770121C4643D
:1018B00040F8541BF0BC00F0AFBD0000F0B59BB089
:1018C0000E4604464FF0FF373D46582220496846F1
:1018D000FEF738FC206A88BB16A800F09DFD16A80C
:1018E000616800F091FD06B96E4604F15400318B39
:1018F000A16100F07DFD3246A168206900F0E8F9A1
:10190000011E21DD16AA204602F062FD05001BD152
:1019100016AA0221204603F0B2F902280DD1FF20B9
:101920008DF8600000208DF8640018A919A8E368FC
:10193000626900F033F8012801D03D4604E09DF8CB
:1019400060500DB9012020621BB02846F0BD000098
:10195000045000082DE9FC41074615460E460024B8
:101960006846009302F050FA60F30704C4F3C00025
:1019700030702009387001A9009800F0DBF8009958
:10198000019A014400910A44511A022904DB684675
:1019900002F040FA28800120BDE8FC812DE9FC41DD
:1019A000074600240E4625466846009202F02CFAAF
:1019B0000146204661F307000009022818D101A959
:1019C000009800F0B7F80099054608440199009086
:1019D0000144081A02280BDB684602F015FA60F38E
:1019E0000704E0093870684602F00EFA30700125ED
:1019F0002846BDE8FC812DE9FC5F8046DDE90EA0AC
:101A00000024CDE90004994617460E462546DDF828
:101A100034B0684602F0F8F960F30704200903289F
:101A20002CD1C4F3C00188F80010C4F34100306029
:101A300004F00100387001A9009800F07BF80099CB
:101A400005460844019900904418224669460C98BE
:101A500002F0E9F990B10098201A0FD430680028FC
:101A600004DD684602F0D6F9A9F800000098211AB2
:101A7000CAF8001000990125CBF800102846BDE8EF
:101A8000FC9F2DE9FC4781460A98002400909A4665
:101A9000164688462546684602F0B6F901462046B5
:101AA00061F307000009092826D101A9009800F078
:101AB00041F8009905460844019900904718381AE2
:101AC000022819DB684602F0A5F9A9F80000346085
:101AD0000EE03168414502DD4FF0FF350CE068460D
:101AE00002F092F931688B00491C31604AF803001A
:101AF0000098B842EDD301252846BDE8FC87F8B52B
:101B0000012500240E4607460C60641C042C0FDCE3
:101B100001216846B84701280AD19DF800003168C4
:101B200000F07F0202FB0511ED0131600006ECD4EC
:101B30002046F8BD024A10600248FFF7E0BF0000EF
:101B4000AC000020CD30000810B503460020CA17B5
:101B500001EB526424F07F02891ACAB2E111002914
:101B600002DD00BF42F080021A5400F10100EEDCF9
:101B700010BD70B504680E4624B12046FEF706FB82
:101B8000054601E0D0E901543046FEF7FFFA8542F0
:101B900005D12A4631462046FEF7FFFA08B100205B
:101BA00070BD012070BD0000401C802801DA401C7F
:101BB0007047B0F5804F01DA801C704703498842B6
:101BC00001DAC01C7047001D70470000FFFF1F00B6
:101BD0002DE9F04305464FF0FF37006A89B01446FF
:101BE0003E464FF00009884670B307A800F014FC89
:101BF00007A8696800F008FC2078012801D00228B5
:101C000003D1284601F02EFDA080D4E90201CDE9E0
:101C10000501CDE90289CDF81090A1886078CDE961
:101C2000000123780022A968286900F01BF9011E31
:101C300025DD07AA284602F0CBFB06001FD120783D
:101C4000012802D0022808D019E007AA042128465A
:101C500003F015F8042807D010E007AA072128464A
:101C600003F00DF8072809D1E868009001AA02A93D
:101C700003A86B69FFF76EFE012800D03E4609B04D
:101C80003046BDE8F083F8B50024069E0546009076
:101C9000042901DAA01EF8BD62F3071463F3C3043C
:101CA000062A24F0060000D1801CC1B2684603F069
:101CB00040F902210098FFF747FF0099084400907F
:101CC0003146684603F03BF90098401BF8BD000020
:101CD0002DE9F84307460090884614460025104633
:101CE00000F082F88146FFF75FFF404502DDA81E45
:101CF000BDE8F8832E46314666F307016846103189
:101D000003F017F949460098FFF71EFF00990844B1
:101D10000090207A04281DD02FA1684603F0F5F822
:101D20000321684603F005F9A07E66F3070560F31A
:101D30004105E07E08B145F00405680707D594F831
:101D40003D0060F3C40594F83C0060F34515206C39
:101D500040B905E022A1684603F0D7F80421E0E786
:101D6000A06C08B145F08005E06C08B9606D08B161
:101D700045F040052946684603F0DBF8218B6846AC
:101D800003F0DDF804F10C0168460EC903F0E6F833
:101D9000E07E68B12434684694E80E00243C03F0E9
:101DA000DDF83034684694E80E00303C03F0D6F895
:101DB000280605D504F1400168460EC903F0CEF8A7
:101DC000680605D54C34684694E80E0003F0C6F862
:101DD0000098C01B8CE700004D51497364700000EF
:101DE0004D5154540000000070B50446007A00259F
:101DF000032802D0042802D002E00C2500E00A25C6
:101E000004F10C0007C800F065F90544E07EAD1C44
:101E100078B1243494E80700243C00F05BF93034B6
:101E2000064694E80700303C00F054F9304405447D
:101E30002D1D206C08B9A16C29B1D4E9111200F054
:101E400049F90544AD1CE06C08B9616D29B1D4E9CC
:101E5000141200F03FF90544AD1C284670BD0C2259
:101E600000F0AFB82DE9FC5F1C46129ECDE9006082
:101E7000DDF838B09046DDF830A0DDE90F23894663
:101E800007465946204600F030F80546FFF78CFE1D
:101E9000484503DD6FF00100BDE8FC9F302168F389
:101EA000C30164F342016AF3000101A803F041F8A1
:101EB00029460198FFF748FE019908440190DDE9A1
:101EC0000F23594601A803F049F8002C03DD01A8AF
:101ED0000D9903F034F8324611990198FEF732F962
:101EE000019830440190C01BD6E770B50E461146EC
:101EF00004461A463046049D00F0ECF82844801C45
:101F0000002C00DD801C70BD2DE9FF4F83B006461C
:101F100010A8894690E8800900249246254641464B
:101F20003846009600F036F80190FFF73DFE484530
:101F300003DDA01E07B0BDE8F08F64F30704803412
:101F40006AF3C30424F00600801CC1B2684602F0A4
:101F5000F0FFDDE90001FFF7F7FD0099084400906C
:101F60006846069902F0EBFF0FE000BF05EB450164
:101F700008EB810090E80E00684602F0EFFF1BF8C6
:101F80002510684602F0D5FF6D1CBD42EEDB0098BF
:101F9000801BCFE72DE9F04102250F4606460024BD
:101FA0000AE000BF04EB440007EB800007C800F024
:101FB00091F80544641CED1CB442F3DB2846BDE8EF
:101FC000F08138B5002304460090022901DA981EFA
:101FD00038BD194663F3070162F30711684602F042
:101FE000A8FF00210098FFF7AFFD0099084400907A
:101FF000001B38BD2DE9FF438DB04FF000080446AB
:10200000CDF81C80CDF8208006914FF0FF37006A94
:1020100099460E463D4620B309A800F0FDF909A8EF
:10202000616800F0F1F9204601F01CFB83B20FAAB1
:1020300006A901208DE807000022A1682069FFF7AA
:1020400063FF011E0DDD09AA204602F0C1F905005B
:1020500007D109AA0921204602F011FE092804D05F
:102060003D4611B02846BDE8F083CDE90278E1682D
:102070006069CDE9000102AB03AA012104A8FFF7C2
:1020800000FD012802D1029D802DEAD05FF0000002
:1020900004EBC001496A19B1401C0528F8DBE0E7F0
:1020A00004EBC0000025C0E90969DAE77CB5064603
:1020B0000D460024684600F0AFF92946684600F056
:1020C000A3F96946304601F03DF9401C00D1441E99
:1020D00020467CBD10B510B1FEF758F80146084601
:1020E00010BD00002DE9F04786B00024324800946E
:1020F000019402940394816941F010018161816926
:1021000001F010010491816941F020018161816930
:1021100001F020010491816941F00401816181692C
:1021200001F004010491816941F008018161806935
:10213000DFF8889000F008004FF40055049000226A
:1021400029464846FEF7F1FCDFF874A04FF48058AA
:10215000002241465046FEF7E8FC0227012603977D
:102160000095CDE9016469464846FEF7E7FB4FF468
:1021700040400325CDE9000569464846FEF7DEFBF1
:1021800049F6FF10CDE9000569460E48FEF7D6FB7B
:1021900040F6FF70CDE9000569465046FEF7CEFBDC
:1021A000CDF800800397CDE9016469465046FEF7FB
:1021B000C5FB06B0BDE8F0870010024000100140EA
:1021C000000C0140000801400B480A494FF400721E
:1021D00001604FF48271416000218160C160016142
:1021E000C0E90512C1610162416281620A21C162D6
:1021F000FEF7ACBF00380040C4000020FEE700003E
:1022000002480168491C016070470000740000200A
:102210007047000001600349416003498160034940
:10222000C16070471F4C0008534C0008194C00084F
:1022300000F00F00092801D8303070473730704760
:102240007047F8B5044640684FF48273984217D13E
:10225000A0684FF48065B0F5004F01D0A8420FD1BF
:102260002068066826F0400606606068984207D13C
:10227000A068A84204D100920B460022012103E08D
:1022800000920B4600228021204600F018F800281A
:1022900004D0606D40F0200060650320F8BD38B5C3
:1022A0000B46009204460022802100F008F8002826
:1022B00004D0606D40F020006065032038BD2DE93A
:1022C000F0411D4617460E460446DDF8188008E02A
:1022D000681C06D0FEF72EFCA0EB0800A8420BD22B
:1022E00055B12068806836EA000030D00020B8423E
:1022F000EED10020BDE8F0812068416821F0E001C6
:1023000041606068B0F5827F0BD1A068B0F5004FE6
:1023100002D0B0F5806F04D12068016821F040013F
:102320000160A06AB0F5005F09D12068016821F45E
:10233000005101602068016841F4005101600120F2
:1023400084F85100002084F850000320D2E70120D7
:10235000CDE77047FEF7F4BB30B58FB02821684653
:10236000FDF709FF14210AA8FDF705FF0121080464
:10237000CDE900100024029402250491CDE9075014
:102380004FF4E01009906846FEF750FD0F20CDE9AC
:102390000A056802CDE90C4002210AA80E94FEF756
:1023A00059FC0FB030BD00000D48016841F001013B
:1023B000016041680B4A1140416001680A4A1140BE
:1023C0000160016821F480210160416821F4FE016F
:1023D00041604FF41F0181600449C00308607047E9
:1023E000001002400000FFF8FFFFF6FE08ED00E0DD
:1023F00001EB4102C2EBC111024A126802EBC101BA
:102400004160704774000020024A12681144416024
:1024100070470000740000200021416070470000F8
:10242000024940680968401AC00F704774000020D4
:10243000034940680968401A00D500207047000031
:10244000740000200FB44FF4807100B5C1B043ABED
:102450006846429A00F0A0F96846FDF797FE82B2FE
:102460004FF0FF3369460348FFF7ACF941B05DF820
:1024700014FB00001C0100202DE9F0410446006817
:102480000169E26821F44051114301612169A068AA
:102490000843616908432168CA6841F20C639A43A2
:1024A0000243CA6020684169A26921F44071114366
:1024B00041611E49206864253226884202D1FEF718
:1024C0006FFC01E0FEF75CFC00EBC00101EB0011CA
:1024D00060686FF018078000B1FBF0F2B2FBF5F214
:1024E000B1FBF0F37A4303EB8202B1FBF0F306EBAE
:1024F0000212B2FBF5F2B3FBF5F302F0F00202EBCD
:102500000312B1FBF0F3B1FBF0F0B0FBF5F0784350
:1025100003EB800006EB0010B0FBF5F0216800F043
:102520000F0010448860BDE8F081000000380140D1
:102530002DE9F041984617460E460446069D1DE0DB
:10254000681C1BD02DB1FEF7F5FAA0EB0800A842DD
:1025500014D92068C16821F4D071C1602068416934
:1025600021F001014161202084F8390084F83A000B
:10257000002084F838000320BDE8F081206800685E
:1025800036EA000004D00020B842D9D00020F3E79A
:102590000120F9E7FEE700000A4601464FF0FF334D
:1025A0000148FEF74BBE0000C400002008B5012121
:1025B0006846FFF7F1FF9DF8000008BD00224FF4C8
:1025C00080510148FEF7B1BA000C0140012211030D
:1025D0000148FEF7AABA0000000C01400A46014675
:1025E0004FF0FF330148FEF7D1BE0000C4000020C9
:1025F00001B501216846FFF7F1FF08BDF8B5144C9D
:102600000546E068804760698047616AC5F3074016
:10261000C5F3072699B1A26A8AB18DF800008DF83A
:1026200001608DF80250032168469047E0698047B9
:102630000546A0698047206980472846F8BD216A81
:102640008847216A30468847216AE8B28847EDE723
:10265000800000202DE9F8431A4C05461746E06833
:102660008846804760698047616AC5F30740C5F3C3
:102670000726A1B1A26A92B18DF800008DF8016021
:102680008DF80250032168469047626A39464046F9
:102690009047A069804720698047BDE8F883216A98
:1026A0008847216A30468847216AE8B28847002572
:1026B00005E0E069804708F805006D1CADB2BD4239
:1026C000F7D3E6E780000020F8B5164C05460E4625
:1026D000E068804760698047A26A45F004058AB1D6
:1026E000280C8DF80000280A8DF801008DF80250A2
:1026F0008DF80360042168469047A06980472069EF
:102700008047F8BD216AC5F307408847216AC5F3B1
:1027100007208847216AE8B28847216A30468847FF
:10272000EBE7000080000020F8B51A4C054616467D
:10273000E0680F46804760698047A26A45F004055B
:102740009AB1280C8DF80000280A8DF801008DF848
:102750000250032168469047A26A314638469047A6
:10276000A069804720698047F8BD216AC5F307400A
:102770008847216AC5F307208847216AE8B288475D
:10278000002504E0216A785D88476D1CADB2B54232
:10279000F8D3E5E7800000207CB5044600201D4604
:1027A000164600290BD0491ECDE90041044B6A466C
:1027B0002946304600F0E8F8009A002111707CBDEF
:1027C000B73000080907090E002804DB00F1E020FB
:1027D00080F80014704700F00F0000F1E02080F84E
:1027E000141D704702E008C8121F08C1002AFAD160
:1027F00070477047002001E001C1121F002AFBD181
:10280000704700002DE9FF5F82B00021DDE9043050
:10281000020DDDF840B0034318D044F61050A2F288
:10282000FF3242431514119801281FD0A5EB0B006D
:10283000401C5FEA000A4FF000064E4FDFF8389167
:10284000B046504615D5CAF1000413E01198012492
:102850004AA3012801D16FEA0B010298119AC0E93D
:102860000031C0E9024206B0BDE8F09FCBF10000A4
:10287000DFE704460021404A491842EB0450CDE905
:10288000001012E0E00707D032463B46404649467A
:10289000FDF780FD8046894632463B461046194684
:1028A000FDF778FD06460F466410002CEAD1DDE9FD
:1028B0000401DDE90023BAF1000F06DAFDF76AFD35
:1028C00042464B46FDF766FD05E0FDF7D5FD424665
:1028D0004B46FDF7D1FD04460E460022284BFDF77E
:1028E00053FE03D84FF0FF30014607E00022254B8E
:1028F00020463146FDF7A7FCFDF72DFE102409E028
:10290000002C0ADB0A220023FDF76CFC039B30320B
:102910001A55641E50EA0102F2D1641C039AC4F1F4
:1029200011031444119A012A03D0012208430DD146
:102930000AE0084304D000204FF0110B119072E719
:10294000A3EB0B056D1E0DE05B4504DD4FF00002AF
:1029500005F1010504E003DA4FF00002A5F10105DD
:10296000002AECD002981199C0E90231C0E9004573
:1029700079E70000000014400000F03F3000000044
:102980000000F0430000E03F2DE9FF4F95B09B466B
:102990008946064600250FE2252877D100242746E0
:1029A000F84A0121059400E0044316F8013F203B5A
:1029B00001FA03F01042F7D130782A2811D06FF0D5
:1029C0002F033078A0F13002092A16D8059A44F076
:1029D000020402EB820203EB42021044761C0590D3
:1029E000EFE759F8042B0592002A03DA504244F429
:1029F0000054059044F00204761C30782E2816D13D
:102A000016F8010F44F004042A280DD06FF02F02AD
:102A10003078A0F13003092B09D807EB870302EBCC
:102A20004303C718761CF3E759F8047B761C30780B
:102A30006C280FD006DC4C2817D068280DD06A28E7
:102A400014D104E0742810D07A280FD10DE044F49A
:102A500000140AE044F4801401E044F44014727855
:102A6000824202D104F58014761C761C30786628E8
:102A70000BD013DC582877D009DC002875D0452806
:102A8000F6D04628F4D047281AD19DE118E06328F3
:102A900035D0642879D0652812D195E1702873D09B
:102AA00008DC6728F1D069286FD06E280DD06F2818
:102AB00006D1B5E073282CD0752875D0782874D04D
:102AC0005A46179990476D1C75E1C4F302500228CD
:102AD00009D003280DD0D9F8001004280DD00D60BE
:102AE00009F1040967E1D9F80010EA17C1E90052B9
:102AF000F6E7D9F800100D80F2E70D70F0E719F84D
:102B0000041B8DF8001000208DF80100EA4601201A
:102B100003E059F804AB4FF0FF3061074FF00001BC
:102B200002D40DE008F101018846B9420FDA804570
:102B3000F8DB1AF808100029F4D108E008F10101C7
:102B400088468142FADB1AF808100029F6D1059868
:102B50005B46A0EB080721463846179A00F094FA26
:102B6000284400EB080507E04DE029E10DE01AF8E4
:102B7000010B5A4617999047B8F10108F7D25B4606
:102B800021463846179A13E142E00A220092C4F324
:102B900002524FF0000A022A08D059F804CB032A47
:102BA0004FEAEC710AD00DE029E02AE009F10701B3
:102BB00021F00702F2E802C1914609E00FFA8CFC0D
:102BC0004FEAEC71042A03D14FFA8CFC4FEAEC7106
:102BD000002907DA0A460021DCF1000C61EB020152
:102BE0002D2202E0220504D52B228DF8042001229B
:102BF00003E0E20701D02022F7E7904659E00A21DE
:102C000002E010220DE010214FF0000A00910BE0CD
:102C100010224FF0000A44F004040827009203E059
:102C200008224FF0000A0092C4F30252022A05D093
:102C300059F804CB0021032A08D009E009F1070163
:102C400021F00702F2E802C1914605E01FFA8CFC70
:102C5000042A01D10CF0FF0C4FF00008220728D500
:102C6000702806D0009B83F0100353EA0A0305D0B6
:102C70000EE040228DF80420012208E05CEA010207
:102C800006D030228DF804208DF8050002229046EF
:102C9000009B83F0080353EA0A030AD15CEA0102AD
:102CA00001D1620705D530228DF804204FF00108CC
:102CB0007F1E582804D034A003900EA802900DE087
:102CC00036A0F9E753466046009AFDF78BFA844632
:102CD0000398825C0298401E029002705CEA010038
:102CE000F0D1029806A9081A00F1200A600702D55F
:102CF00024F4803400E00127574502DDA7EB0A00E9
:102D000000E0002000EB0A01009005984144401AC1
:102D10000590E00306D45B462146179A059800F01B
:102D2000B3F90544002706E001A85A46C05D17998B
:102D300090476D1C7F1C4745F6DBE0030CD55B46D6
:102D40002146179A059800F09FF9054404E03020C9
:102D50005A46179990476D1C0099481E009000290B
:102D6000F5DC08E0029802995A460078491C029165
:102D7000179990476D1CBAF10001AAF1010AF1DC24
:102D800065E100000928010030313233343536372F
:102D900038396162636465660000000030313233A7
:102DA0003435363738394142434445460000000047
:102DB00000F058F90544761C307800287FF4ECAD1B
:102DC00019B02846BDE8F08F620700D4062709F144
:102DD000070222F0070CFCE80223E14603F000485A
:102DE0005FEA080C02D00FF2702C0DE05FEA045C81
:102DF00002D50FF2682C07E05FEAC47C02D00FF224
:102E0000602C01E0AFF2700C4FF0FF3823F000436C
:102E1000CDF850C065280CD006DC452809D04628DE
:102E20001DD047283DD13DE0662818D067287ED1C7
:102E300038E00021112F01DB112000E0781CCDE9E2
:102E4000000106A90EA8FFF7DDFCDDE90F010E9ACF
:102E500003910021009207F1010A04914DE04FF027
:102E600000400097CDE9011006A90EA8FFF7CAFCA3
:102E7000DDE90F0203920E9B11990022DDF80CA0F0
:102E80000093049211B9791C00EB010AB7EB0A0018
:102E900004D4C0F1FF3007F1010A0490AAEB070047
:102EA000019044E0012F00DA01270021112F01DDFC
:102EB000112000E03846CDE9000106A90EA8FFF771
:102EC000A1FCDDE90F010E9A03910021049100920B
:102ED000BA4621070CD40399514500DA8A46BAF163
:102EE000010F05DD009AAAF10101515C302908D0DB
:102EF000B84202DA10F1040F06DA0121CDE901101F
:102F000015E0AAF10101E9E7002805DC0499014474
:102F10000491AAEB000102E0411C514500DD8A4604
:102F20000499401A401C01904FF000400290200785
:102F300004D40198504501DBCDF8048000208DF8C1
:102F40004F0002980DF14F07B0F1004F25D02B2014
:102F50000E9002984FF0020800280CDA40420290CE
:102F60002D200E9007E00A210298FDF725F9303157
:102F7000029007F8011DB8F10001A8F10108F2DC88
:102F800002980028EFD1791E0E980870307800F072
:102F9000200040F0450007F8020D12A8C01B00F108
:102FA00007081498007800B1012000EB0A0101988D
:102FB00001EBE07105984144401A401E0590E00382
:102FC00006D45B462146179A059800F05DF8054443
:102FD0001498007818B15A46179990476D1CE00371
:102FE00024D55B462146179A059800F04DF8054414
:102FF0001CE00498002807DBDDE90301884203DDBB
:103000000098405C179901E0179930205A46904784
:10301000049805F10105401C04900198401E0190A0
:1030200004D12E205A46179990476D1CBAF1000121
:10303000AAF1010ADDDC05E017F8010B5A461799E1
:1030400090476D1CB8F10001A8F10108F4DC5B4663
:103050002146179A0598ABE62D0000002B000000D2
:10306000200000002DE9F041044600251E461746C9
:10307000880404D405E039462020B0476D1C641E46
:10308000F9D52846BDE8F0812DE9F0410446002538
:103090001E469046C80301D5302700E0202788044B
:1030A00004D505E041463846B0476D1C641EF9D58D
:1030B0002846BDE8F0814A68002A06D00A68531CF9
:1030C0000B6010704868401E4860704730B5044679
:1030D00006480023026803E012F8015B25705B1CC0
:1030E0008B42F9DB0260084630BD0000AC000020D6
:1030F000F8B54FF4D8563046FFF780FA054603215D
:103100003046FFF7E1FA0E4B41F28830DC1F0090A9
:1031100011220CA1A07801F027FC07462946304671
:10312000FFF7D2FA0D3708D001F07CF9E069E169C8
:10313000091A0229FBD30020F8BD0120F8BD0000C8
:1031400013000020434845434B5F49505F434F4EB7
:10315000464C49435400000070B51A4C01252046E6
:1031600094F90110002690F90000022917DAD4E939
:103170000721914223D2012804D0022805D0042837
:1031800005D102E001F0CEF901E001F0A5FAE66117
:10319000E0690A3020626078401C60700FE001280E
:1031A00004D0022805D0042807D102E026700025AB
:1031B00003E001F0B7F90120207001F071F8284612
:1031C00070BD00000C00002070B50446082802D92C
:1031D0004FF0FF3070BD4FF4847000EB4410054693
:1031E0001021FFF771FA2846FFF708FA0028FAD1F4
:1031F0004FF4027000EB44101F21FFF765FA0D49F0
:103200000120A0404A8882434A808A8882438A807B
:103210000949002021F814000649891D08554FF47A
:10322000427000EB44142046FFF7E8F90028FAD179
:10323000012070BD64000020741100202DE9F041D0
:1032400017460E460446082803D94FF0FF30BDE864
:10325000F08160014FF001080830FFF7CFF900F06E
:103260000F00012802D06FF00400F0E74FF4427025
:1032700000EB44100546FFF7C1F9132802D06FF0A8
:103280000200E4E73078717801EB0020B17801EBBF
:103290000020F17801EB0020411C2CD058B36FB313
:1032A00040F6084000EB441004223146FFF73CFA98
:1032B00041F20800390A00EB4410FFF705FA41F229
:1032C0000810F9B200EB4410FFF7FEF94FF48470D8
:1032D00000EB441006460421FFF7F6F93046FFF7ED
:1032E0008DF90028FAD1164908FA04F049880842F5
:1032F0001AD00020ABE76FF00B00A8E76FF00A00D0
:10330000A5E72046FFF77AF9000706D520460821F1
:10331000FFF7DAF96FF00C0099E72846FFF76EF92E
:1033200030B96FF0030092E74FF4027000EB4414E1
:103330002846FFF763F91728E3D1012087E700004B
:1033400064000020F0B58DB00C46054600F085FD08
:1033500086B2B01E4FF0FF370C2865D2DFE800F0D0
:1033600064066444646464646464646208AA6969A9
:10337000E8680292CDE9031007AB0AA8CDE9000383
:1033800005A8031D421C09A9801CFEF734FB012877
:103390004DD109988DF8140005AA0AA9284600F015
:1033A0008FF89DF81400E0B3012802D0022808D05D
:1033B00035E0BDF81800009000230422A9682869B0
:1033C00006E0BDF81800009000230522A9682869CE
:1033D000FEF759FC011E22DD2246284600F0F8FFC8
:1033E0000446401C24D026E0E868009001AA02A907
:1033F00003A86B69FEF7AEFA012810D1BDF80400EE
:10340000009000230622A9682869FEF73CFC011EF3
:1034100005DD2246284600F0DBFF04000BD03C46C9
:1034200006E001E000202877284600F0B9FA34468B
:103430000DB02046F0BD284600F0B2FA002CF6D0C0
:10344000F6E7000010B5042209494FF47060FFF759
:103450006BF90749042208314FF4A060FFF764F9C3
:1034600003490422091DBDE810409001FFF75CB933
:103470001300002010B580210020FFF725F900205F
:10348000FFF7BCF8BDE81040062202494FF4106077
:10349000FFF74AB94800002010B580210020FFF74F
:1034A00013F90020FFF7AAF8FFF7CCFFBDE81040A2
:1034B000062202494FF41060FFF736B94800002099
:1034C0002DE9FC479146884606464FF0FF3400251B
:1034D00006EBC507796AD1B34046FEF74AFB70BBDD
:1034E000D8E901100A187B6A20E000BF90F800C0FC
:1034F000BCF12F0F0AD02B290BD0232913D0614503
:1035000018D12B2905D023290DD00DE02F2911D159
:103510000AE0411C01E0811C401C914204D2097860
:103520002F29F8D100E0501E401C5B1C197809B10E
:103530009042DBD390420AD111F0FF0F07D1B86A55
:1035400028B1CDE90098B96A6846884700246D1C07
:10355000052DBDDB601C07D1F06C28B1CDE90098CA
:10356000F16C6846884700242046BDE8FC870000CF
:1035700070B50446082802D94FF0FF3070BD6001D5
:1035800001250830FFF73AF800F00F00012801D0BC
:10359000A81F70BD4FF4847000EB4410064608214C
:1035A000FFF792F83046FFF729F80028FAD11248C1
:1035B000A5408188A9438180408805420CD0002025
:1035C00070BD3046FFF71AF800070DD52046FFF70B
:1035D000FBFD6FF00C0070BD4FF4027000EB441661
:1035E0004FF4427000EB44152846FFF707F8002817
:1035F000E7D1012070BD00006400002038B504460A
:103600008DF8000069460320ABBE204638BD00009F
:1036100001488069704700000C00002004490A78C6
:1036200002704A7842708A788270C978C170704797
:103630001F00002004490A7802704A7842708A7894
:103640008270C978C17070471700002004490A7859
:1036500002704A7842708A788270C978C170704767
:10366000130000200168A1F57F42FF3A03D0491CF6
:103670000160084670470121FAE7000004490A7812
:1036800002704A7842708A788270C978C170704737
:103690001B0000202DE9F04142F2086101EB4015CA
:1036A00042F20871002601EB40142846FEF7A6FFFF
:1036B00007462046FEF7A2FF00EB072007043F0C59
:1036C00009D02846FEF79AFF06462046FEF796FFE9
:1036D00000EB062086B2BE42E7D13046BDE8F0815D
:1036E0002DE9F04142F2080101EB401542F20811C8
:1036F000002601EB40142846FEF780FF07462046CF
:10370000FEF77CFF00EB072007043F0C09D028469A
:10371000FEF774FF06462046FEF770FF00EB06201A
:1037200086B2BE42E7D13046BDE8F08130B597B0F1
:103730004BA0FEF787FE4FA0FEF784FE5649574880
:1037400000F070FD5649574800F07EFD5649574835
:1037500000F090FD56A0FEF775FE5CA1D1E90001D6
:10376000CDE9130113A9084601F027FB59A0FEF784
:1037700069FE18225E490DA8FCF7E4FC06220DA99B
:103780004FF41060FEF7D0FF5A490020FCF7F0FF1D
:1037900059A0FEF757FE61495F4A084600F02AFD2E
:1037A0005FA0FEF74FFE644C644D02E0FDF720F889
:1037B000641E287808B9002CF8D1287800284AD04F
:1037C0000DF13A00FFF742FF0DF14200FFF732FF23
:1037D0000DF13E00FFF752FF15A8FFF71FFF9DF800
:1037E000540009AC9DF857309DF856209DF85510AF
:1037F00084E80F009DF83E0005AC9DF841309DF82F
:1038000040209DF83F1084E80F009DF8420001AC75
:103810009DF845309DF844209DF8431084E80F0042
:103820009DF83D0000909DF83C309DF83B209DF8B0
:103830003A104348FEF706FE42A0FEF703FE0DA82D
:1038400001F0F8FA48A0FEF7FDFD4D490120FDF713
:1038500069F817B030BD4BA0FEF7F4FDF9E70000A2
:103860000D0A696E697428292063616C6C65642196
:103870000D0A00005265676973746572696E67208E
:1038800057353530302063616C6C6261636B732E29
:103890002E2E0D0A00000000CD250008BD250008D1
:1038A000F1250008AD250008DD2500089925000850
:1038B00043616C6C696E672077697A636869705FD1
:1038C000696E697428292E2E2E0D0A00020202024A
:1038D0000202020243616C6C696E672044484350E7
:1038E0005F696E697428292E2E2E0D0A00000000D3
:1038F000EC4F0008730900205265676973746572A4
:10390000696E6720444843502063616C6C62616358
:103910006B732E2E2E0D0A0029070008DD06000805
:1039200043616C6C696E6720444843505F72756EEA
:1039300028292E2E2E0D0A00A0860100000000204E
:103940007450000843616C6C696E672077697A6314
:103950006869705F7365746E6574696E666F282937
:103960002E2E2E0D0A00000043616C6C696E6720DC
:10397000444E535F696E697428292E2E2E0D0A005D
:10398000730D00200D0A495020776173206E6F740B
:103990002061737369676E6564203A280D0A000020
:1039A0007CB5044680694FF0FF3538B104F154000E
:1039B000FEF736FDD0B1207F10B117E0002515E0ED
:1039C0006846FEF729FD4FF47A716846FEF71CFD44
:1039D000A1682069FEF743FA011E07DD6A4620460A
:1039E00000F0F6FC050001D10120207728467CBDBF
:1039F000D8B0FDF7ADF8FEF7AFFCFEF773FBFEF7AE
:103A0000E3FB47484549002401604FF4E131C0E938
:103A100001140C21C460C0E904418461C461FDF754
:103A200068FEFFF783FE3FA0499400684E90022194
:103A300049A8FEF7EFFB40F25B724EA949A8FCF7DC
:103A400085FE37494FF40062403164208DE807005D
:103A50004FF47A7730AB3A4649A903A8FDF710FF37
:103A6000582231491AA8FCF76DFB04208DF870002C
:103A70002EA01D908DF8834030A02A902EA02D906E
:103A80003C20ADF8800001208DF882001AA903A81F
:103A9000FDF714FF01462CA0FEF7D4FC2EA02F4BFF
:103AA00000684D9000224DA903A8FEF7A3FA024634
:103AB0004DA92BA0FEF7C6FC2F4D0026A87830B3E9
:103AC0002E48AC70C179437A027A8DE80E00837972
:103AD0002BA210214FA801F095F8002817DD8DF8D2
:103AE0004C41A988ADF85011491CA98056904FA8A7
:103AF000559053AA25A103A8FEF76AF8761C0A2E52
:103B000005D34FF400512648FDF708F80026394642
:103B100003A8FEF7CBFA00F0CDF8CFE7003801405C
:103B20001C010020C0A81D2A944F000877353530AD
:103B3000302D636C69656E740000000075736572EA
:103B40006E616D6500000000436F6E6E65637465A5
:103B5000642025640D0A00002F230000753C000836
:103B60005375627363726962656420282573292026
:103B700025640D0A00000000000000205C09002000
:103B800025642E25642E25642E2564002F77353577
:103B900030305F73746D33325F636C69656E7400CF
:103BA000001001401CB5062269464FF41060FEF774
:103BB00051FD2F4A0120916B0870487006208870D3
:103BC0000020C870536B1B0E0B71536B1B0C4B7199
:103BD000938E1B0A8B7192F83430CB71916B8023DA
:103BE00008818B72C872916B02F13C0308734873B1
:103BF0008873C873087448748874C87408754875E5
:103C00008875C875087648768876C8761C780C77EB
:103C10005C784C779C788C77DC78CC771C7981F851
:103C200020405B7981F821300623CC185B1CDBB285
:103C30002077102BF9D3936B00215C18491CC9B273
:103C400084F82C004029F8D3936B00215C18491CA0
:103C5000C9B284F86C008029F8D3906B632182226A
:103C600000F8EC1F427053228270C1701CBD00002E
:103C70000C00002070B506460024056806E0806848
:103C80000849005D00F0BEF8641CE4B27068416849
:103C9000A142F4DCD5E90221BDE8704002A0FEF7A4
:103CA000D1BB0000C00000202028252E2A73290D3A
:103CB0000A00000070B5FEF7A3FA0A4CA068401C89
:103CC000A060B0F5FA7F0CD30025A560FCF722FEBA
:103CD0006078401CC0B260700A2802D36570012071
:103CE000A07070BD000000207FB5454C0025A07875
:103CF000FFF7D0FC020028D001A8009002ABA0780A
:103D0000A16B00F06DF982B2BDF8040043283AD1EE
:103D1000A06B04F13C01037F0E78B34215D1437FC1
:103D20004E78B34211D1867F8B789E420DD1C37FEE
:103D3000CE78B34209D190F820300E79B34204D145
:103D400090F8213049798B4202D0002004B070BD38
:103D5000F0308118F03914E00278332A34D007DCCF
:103D6000AAB1012A18D0032A1AD0062A06D11CE0CB
:103D7000352A0ED0362A36D0FF2A06D04278801C4B
:103D800010448842E8D368B2E0E70846F9E7401CEF
:103D9000F7E78578C01CF4E7194A83780F3225E0ED
:103DA000174A437886780B3203E0154A43788678C1
:103DB00013321670C6785670067996704679801D53
:103DC0001844D670001FDCE78278A261C37803EB49
:103DD0000222A261037903EB0223A361427902EB81
:103DE0000322A26109E0064A837830321370C37857
:103DF0005370037993704379D370801DC1E700003D
:103E00000C000020FFF7FABB016811F8012B0160DC
:103E10001046704701684A7811F8023B016002EBD6
:103E2000032210467047F0B5054608680026101AB0
:103E300017460C4601280CDD0846FFF7EBFF6860CB
:103E400021680A18BA4204D8A960216801260844EA
:103E50002060002028603046F0BD2DE9F34F81B08E
:103E600004464FF000084FF0FF3945460298FEF730
:103E7000DFFA0346206D616901224668B0470128D8
:103E800038D182460298FEF7D3FA01268346374698
:103E900002E07F1C042F11DC206D5B460122D0F86C
:103EA00004C06946E047012808D19DF8000000F0F1
:103EB0007F0101FB0655F6010006EAD46069294638
:103EC000401CFDF741FE00EB0A06002D0BDD0298B9
:103ED000FEF7AEFA034660692A468119206D4668EE
:103EE000B047A84206D160690178404661F30700F7
:103EF0004FEA10194846BDE8FE8F00002DE9F74F44
:103F000014460546082803D94FF0FF30BDE8FE8F60
:103F1000680101260830FEF771FB00F00F00012850
:103F200001D0B01FF2E724B341F6086000EB451062
:103F3000FEF764FB4FF6FF7101EA8020A04200D239
:103F400004464FF4427000EB451841F60870DFF864
:103F50008CA000EB451B06FA05F92846FFF79AFBF3
:103F600006464046FEF74AFB172816D01C2803D009
:103F70000DE06FF00D00C9E7CEB92846FFF7B0FBA2
:103F800007465846FEF73AFBB7EB802F05D1284687
:103F9000FFF71AF96FF00600B8E7BAF8021019EA4D
:103FA000010F02D01EB90020B0E7002ED5D0A642E6
:103FB00000D2344622462846019900F075FE4FF49F
:103FC000847000EB451005464021FEF77DFB284636
:103FD000FEF714FB0028FAD1204697E76400002082
:103FE0002DE9FF4F002583B01F4690460446082860
:103FF00003D9681E07B0BDE8F08F60014FF0010AD9
:104000000830FEF7FBFA834600F00F00022806D0C6
:10401000032804D0042802D06FF00400EAE7B8F1C6
:10402000000F05D0DFF8C49139F8140018B11EE074
:104030006FF00D00DEE74FF4427000EB44160AFA11
:1040400004FA2046FFF726FB05463046FEF7D6FA6F
:1040500030B1674949881AEA010F06D01DB106E060
:104060006FF00300C6E70020C4E7002DE9D00BF095
:104070000701DFF87CA14FF484704FF0800B0AF148
:10408000060A00EB4416022922D003297CD0042919
:1040900052D02946204600F037FE29F81450304609
:1040A0004021FEF711FB3046FEF7A8FA0028FAD1AE
:1040B00039F81410491B0904090C29F8141003D00D
:1040C0001AF8041041F001010AF80410284691E79B
:1040D00039F814004D4670BB08226946204600F0AE
:1040E000E3FD30464021FEF7EFFA3046FEF786FA50
:1040F0000028FAD19DF8000038709DF80100787012
:104100009DF80200B8709DF80300F87010999DF8B2
:10411000040008809DF8051001EB0020109908802C
:104120009DF806009DF807105BE02A46204604999A
:1041300000F0BAFDB3E72AE039F814004D4630BB71
:1041400002226946204600F0AFFD30464021FEF7CE
:10415000BBFA3046FEF752FA0028FAD19DF800006B
:104160009DF801106FF0010202EB0020084480B2BC
:1041700040F2EA5125F81400884206D92046FFF79C
:1041800023F86FF47A7035E702E00AF804B003E030
:1041900039F814004D4630B135F8145040464545C5
:1041A000C3D90546C1E706226946204600F07CFDDA
:1041B00030464021FEF788FA3046FEF71FFA002805
:1041C000FAD19DF8000038709DF8010078709DF8D4
:1041D0000200B8709DF80300F8709DF804009DF887
:1041E000051001EB002025F81400CEE77411002023
:1041F0006400002010B5084B064C5C62074C9C62C2
:10420000074CDC6200B1586201B19962002A00D00B
:10421000DA6210BD453400080C0000209934000813
:1042200075340008054A18B111B1C2E9050170479B
:1042300003485061034890617047000080000020EF
:10424000B94D0008B74D0008074A10B513889C0502
:10425000FDD518B111B1C2E9070110BD0348D06105
:104260000348106210BD0000800000208F4E00083F
:10427000954E0008074A10B513889C05FDD518B166
:1042800011B1C2E9090110BD0348506203489062B0
:1042900010BD0000800000208D4E0008934E0008E5
:1042A00003480021C1610A22026241707047000088
:1042B0000C0000202DE9F05F15468B4606460828C5
:1042C00003D94FF0FF30BDE8F09F700101240830A2
:1042D000FEF794F900F00F00012801D0A01FF2E7CB
:1042E00075B14FF4427000EB46100746FEF786F9B1
:1042F0006FF0060A172806D01C2804D05046E2E7C3
:104300006FF00D00DFE7DFF8C480B440B8F80400B8
:10431000044213D04FF4027000EB46108146FEF7C2
:104320006DF900F01F00C10624D548461021FEF7A4
:10433000CBF9B8F80410A143A8F8041041F60870AE
:1043400000EB4610FEF75AF94FF6FF7101EA8020A4
:10435000854200D905463046FFF7C2F98146384606
:10436000FEF74CF917280DD01C280BD03046FEF76D
:104370002BFFC3E700070BD53046FEF725FF6FF094
:104380000C00A0E7B8F80200044203D04D4501D963
:10439000002098E74D45DED82A465946304600F0C1
:1043A000D4FC4FF4847000EB461006462021FEF743
:1043B0008BF93046FEF722F90028FAD1B8F804103C
:1043C00028460C43A8F804407DE700006400002064
:1043D0002DE9F04190460E4605464FF0FF37002488
:1043E0000DE04046FEF724F80346286932460119DD
:1043F000286DD0F808C0E047002807DB0444B44229
:1044000004DA4046FEF70CF80028EAD0B44207D19F
:1044100005F15400A969FDF7EBFF0020BDE8F0812C
:104420003846FBE71CB5FFF7BDFB3D4800213D22A8
:10443000806B4FF49C738172C172352180F8F0104B
:10444000012180F8F110042180F8F210072180F892
:10445000F32080F8F410012180F8F51030493C3148
:104460000A7880F8F6204A7880F8F7208A7880F871
:10447000F820CA7880F8F9200A7980F8FA2049797A
:1044800080F8FB10322180F8FC10042180F8FD1028
:104490002349C91D097880F8FE102149C91D4978B2
:1044A00080F8FF101E49C91D897880F800111C4949
:1044B000C91DC97880F80111362180F80211042144
:1044C00080F80311164930310A7880F804214A78BF
:1044D00080F805218A7880F80621C97880F80711CC
:1044E000FF2180F808111D2100224418491C84F87E
:1044F000EC209942F9DBFF208DF804008DF80500CF
:104500008DF806008DF8070043200090044801ABA9
:104510004FF40972816B807800F026FA1CBD000010
:104520000C0000202DE9FC47FFF73CFB694C3521CE
:104530000126A06B04F13C031A4680F8F01080F8C5
:10454000F16080F8F2603D2180F8F310072180F8D7
:10455000F41080F8F560197880F8F61019460025F7
:10456000497880F8F710927880F8F8201A460C21E4
:10457000D27880F8F9201A464FF00609127980F8AF
:10458000FA201A464FF00F0A527980F8FB2080F883
:10459000FC1080F8FD501222294603F1060C07E0BA
:1045A00000EB0208521C491C88F8EC7092B289B2E8
:1045B0001CF80170002FF3D1D8780009FDF738FE00
:1045C000A76B1744521C87F8EC0092B2D878FDF71D
:1045D0002FFEA76B1744521C87F8EC00187992B293
:1045E0000009FDF725FEA76B1744521C87F8EC0065
:1045F00092B21879FDF71CFEA76B1744521C87F87E
:10460000EC00587992B20009FDF712FEA76B17442F
:10461000521C87F8EC0092B25879FDF709FEA36BA3
:104620009F18521C87F8EC0092B2881D511A194449
:1046300081F8E500A06B37218318521C83F8EC1039
:1046400091B24318491C83F8EC9089B24318491C75
:1046500083F8EC6089B246180323491C86F8EC30D5
:1046600089B24318491C83F8EC9089B24318491C5D
:1046700083F8ECA089B243183A2283F8EC20491C55
:1046800089B243183B2283F8EC20491C89B2FF22EF
:104690004318491C83F8EC2089B24FF49C7304E062
:1046A0004618491C86F8EC5089B29942F8D38DF827
:1046B00004208DF805208DF806208DF80720432072
:1046C000009001AB4FF40972A078A16B00F04CF997
:1046D000BDE8FC870C0000202DE9FC5FFFF762FAC3
:1046E000DFF880C2FF270CF107029CF900000025CB
:1046F00002F12904032841D004283FD08DF804702A
:104700008DF805708DF806708DF80770DCF83800AC
:104710003521012680F8F01080F8F1604FF0030990
:1047200080F8F2903D2180F8F3108E4B072180F83D
:10473000F4103C3380F8F560197880F8F6101946CB
:104740004FF00C0A497880F8F71019464FF00F0B1C
:10475000897880F8F8101946C97880F8F910194658
:10476000097980F8FA101946497980F8FB109DF80C
:1047700007801021B8F1FF0F19D03FE0DCF83800B6
:104780008572C57211780173517841739178817384
:10479000D178C17320788DF8040060788DF8050019
:1047A000A0788DF80600E0788DF80700AEE732219A
:1047B00080F8FC10042180F8FD1092F8008080F849
:1047C000FE8092F8018080F8FF8092F8028080F8E5
:1047D0000081D27880F80121362280F8022180F809
:1047E0000311217880F80411617880F80511A1780F
:1047F00080F80611E17880F807111C215246441810
:10480000491C84F8EC204218E24682F8EC50DFF8AC
:1048100054C100220CF1420C491C06E000EB0108D7
:10482000491C88F8EC4089B2521C1CF80240002C4C
:10483000F4D1D8780009FDF7FBFCDAF838C054460B
:104840008C44491C8CF8EC0089B2D878FDF7F0FC58
:10485000D4F838C08C44491C8CF8EC00187989B223
:104860000009FDF7E5FCD4F838C08C44491C8CF8ED
:10487000EC0089B21879FDF7DBFCD4F838C08C4421
:10488000491C8CF8EC00587989B20009FDF7D0FC7E
:10489000D4F838C08C44491C8CF8EC0089B25879A3
:1048A000FDF7C6FCA36B03EB010C491C8CF8EC0074
:1048B00089B2901D8A1A1A4482F8E500A06B37224B
:1048C0004318491C83F8EC2089B243180822491C7C
:1048D00083F8EC2089B24218491C89B2431882F847
:1048E000EC60491C83F8EC9089B24318062283F8E7
:1048F000EC20491C89B24318491C83F8ECB089B2FA
:1049000043183A2283F8EC20491C89B243183B2211
:1049100083F8EC20491C89B243181F2283F8EC204D
:10492000491C89B243182122491C83F8EC2089B222
:104930004218491C82F8EC7089B24FF49C7203E073
:104940004318491C83F8EC509142F9DB4320009056
:1049500001AB4FF40972A078A16B00F005F8BDE837
:10496000FC9F00000C0000202DE9F0471E46DDF8FA
:10497000208015468A460446082803D94FF0FF30A8
:10498000BDE8F087670108374FF001093846FDF7A9
:1049900035FE00F00F00022806D0032804D00428BA
:1049A00002D06FF00400EBE75DB13078717801EB75
:1049B0000020B17801EB0020F17811EB002003D04A
:1049C0000AE06FF00D00DBE73846FDF717FE400701
:1049D00002D46FF00B00D3E7B8F1000F07D13846CF
:1049E000FDF70CFE400702D46FF00A00C8E74FF451
:1049F000427000EB44100746FDF700FE422806D047
:104A0000222804D0322802D06FF00600B8E740F622
:104A1000084000EB441004223146FDF785FE41F2C8
:104A200008004FEA182100EB4410FDF74DFE41F25B
:104A3000081008F0FF0100EB4410FDF745FE41F6B9
:104A4000087000EB4410FDF7D9FD4FF6FF7101EA45
:104A50008020854200D90546DFF8888009FA04F6EF
:104A60002046FEF73DFE81463846FDF7C7FD38B1CA
:104A7000B8F80200064206D04D4504D900207FE771
:104A80006FF003007CE74D45EAD82A4651462046A0
:104A900000F05BF94FF4847000EB441006462021CF
:104AA000FDF712FE4FF4027000EB44143046FDF7A0
:104AB000A5FD0028FAD12046FDF7A0FD00F01F005B
:104AC000C10605D520461021FDF7FEFD284657E713
:104AD0000007F0D520460821FDF7F6FD6FF00C0029
:104AE0004EE70000640000202DE9F8431D461746FC
:104AF0000E460446082803D94FF0FF30BDE8F8837E
:104B0000012E08D0022E0ED0032E0CD0042E0AD077
:104B10006FF00400F2E7042269464FF47060FDF77D
:104B200099FD009848B169076FF00500E6D49DB182
:104B3000012E05D0022E0FD106E06FF00200DDE756
:104B400015F0210FDAD007E0A90601D52906D5D541
:104B5000E90601D52906D1D52046FEF735FB6001CF
:104B600005F0F0014FF0010831430830FDF7ACFDCE
:104B7000224E57B93788781C80B2A0F57F4130802B
:104B8000F03902D14FF4404030804FF48160390A4F
:104B900000EB4410FDF798FD4FF4A160F9B200EB73
:104BA0004410FDF791FD4FF4847000EB441007466C
:104BB0000121FDF789FD3846FDF720FD0028FAD1D7
:104BC00008FA04F0718805F001028143A2400A430B
:104BD0007280B1888143B1800949002021F8140016
:104BE0000649891D08554FF4427000EB44152846CC
:104BF000FDF704FD0028FAD060B27FE764000020D2
:104C0000741100200FB410B505AB049AFDF7C4FD74
:104C100010BC40B25DF814FB0078FEF7A9BC70B57B
:104C200004460E4600684FF44271154601EB4010F1
:104C3000FDF7E4FC17280AD12078FEF72BFD30B1F0
:104C4000AAB220783146BDE87040FFF757B900207E
:104C500070BD70B504460E4600684FF442711546AB
:104C600001EB4010FDF7CAFC172801D0002070BDF1
:104C7000AAB220783146BDE87040FFF71BBB2DE992
:104C8000F04116460D4607464FF0FF343046FDF71B
:104C9000C7FB30B931463846FEF754FB0446A842FC
:104CA000F4D12046BDE8F0812DE9F0475FEA020823
:104CB0008946064626D042F6081000EB46152846DF
:104CC000FDF79CFC074642F6080000EB4614204620
:104CD000FDF794FC07EB002087B2380200EB46108A
:104CE000424649461830FDF7B5FC07EB080086B28E
:104CF000310A2046FDF7E8FCF1B22846BDE8F0474E
:104D0000FDF7E2BCBDE8F0872DE9F041044642F62C
:104D1000081000EB44150E462846FDF76FFC0746C9
:104D200042F6080000EB44142046FDF767FC07EB51
:104D30000020304486B2310A2046FDF7C5FCF1B2AE
:104D40002846BDE8F041FDF7BFBC2DE9F0475FEA1A
:104D500002088946064626D042F2085000EB461566
:104D60002846FDF74BFC074642F2084000EB46148C
:104D70002046FDF743FC07EB002087B2380200EB2A
:104D80004610424649461030FDF7CEFC07EB0800BE
:104D900086B2310A2046FDF797FCF1B22846BDE8FD
:104DA000F047FDF791BCBDE8F087007870470170CF
:104DB000704770477047704770472DE9F0410D46C6
:104DC0000646002400F067F84FF0FF38AEB100222D
:104DD000B05C204444B2102C17DC521C52B2082A9A
:104DE000F6DB002441F60877315D07EB4410FDF750
:104DF0006BFC641C64B2082CF6DBCDB100210846C4
:104E00002A5C114449B2102902DD4046BDE8F08118
:104E1000401C40B20828F3DB002441F60866295DF7
:104E200006EB4410FDF750FC641C64B2082CF6DB62
:104E30000020EBE710B50446014606224FF410604F
:104E4000FDF772FC042204F10E019001FDF76CFCE9
:104E5000042204F10A014FF4A060FDF765FC04226E
:104E6000A11D4FF47060FDF75FFC0748A17C017045
:104E7000E17C4170217D8170617DC1700249A07D1E
:104E8000491E087010BD0000790000207047002006
:104E9000704770477047F0B585B04FF41064062234
:104EA00069462046FDF7D6FB0422950102A9284653
:104EB000FDF7D0FB4FF4A066042203A93046FDF7AE
:104EC000C9FB4FF47067042204A93846FDF7C2FB02
:104ED00080210020FDF7F8FB0020FDF78FFB062264
:104EE00069462046FDF720FC042202A92846FDF76A
:104EF0001BFC042203A93046FDF716FC042204A97A
:104F00003846FDF711FC05B0F0BD70B504460E46FD
:104F10000846FBF73BF905460146204600F00FF82E
:104F20002A4631462068FBF70DF9206828442060A6
:104F300070BD026811700168491C0160704710B5AE
:104F4000CA17046801EB12631A0A22700268521C25
:104F5000026011700168491C016010BD70B5141E1B
:104F60001E4605460BDD1146FFF7E9FF2246314696
:104F70002868FBF7E7F828682044286070BD19B15D
:104F8000BDE87040FFF7C1BFBDE870400021FFF7EA
:104F9000D6BF00004D515443000000000400000043
:104FA0000000000000000000000000003C000100C4
:104FB0004D515457000000000000000000000000A8
:104FC00000000000000000000000000000000000E1
:104FD00000000000000000000000000000000000D1
:104FE000000000000000000000000000EA11223371
:104FF00044EA000000000000000000000000000083
:10500000000002004D515443000000000400000065
:105010000000000000000000000000003C00010053
:105020004D51545700000000000000000000000037
:105030000000000000000000000000000000000070
:105040000000000000000000000000000000000060
:105050000000000000000000000000000000000050
:105060000000000001020304060708090000000018
:105070000102030449503A202025642E25642E2580
:10508000642E25640D0A47573A202025642E256496
:105090002E25642E25640D0A4E65743A2025642E53
:1050A00025642E25642E25640D0A444E533A20258E
:1050B000642E25642E25642E25640D0A0000000050
:1050C000E050000800000020C4000000E4270008B1
:1050D000A4510008C4000020C4140000F4270008F4
:1050E00000000000000000000000000000000000C0
:1050F00000000000000000000000000000000000B0
:1051000000000000FFFFFFFF000000000A00000099
:105110004534000899340008753400080000000088
:1051200000000000000000000000000000005749DF
:105130005A6E6574000000000000000000000000CE
:105140000000000000C0000000000000000000009F
:10515000000000000000000000000000000000004F
:10516000010257353530300000000000B34D000813
:10517000B54D0008B94D0008B74D0008AB4D00080B
:10518000AF4D00080000000000000000000000001B
:105190000024F400010000001000000000000000E6
:0451A000000000000B
:04000005080000ED02
:00000001FF
